{
	"_format": "hh-sol-artifact-1",
	"contractName": "MetaN1",
	"sourceName": "contracts/MetaN1.sol",
	"abi": [
		{
			"inputs": [
				{
					"internalType": "address",
					"name": "newOwner",
					"type": "address"
				},
				{
					"internalType": "address",
					"name": "operator",
					"type": "address"
				},
				{
					"internalType": "string",
					"name": "_baseURI",
					"type": "string"
				},
				{
					"internalType": "uint256",
					"name": "_openTime",
					"type": "uint256"
				},
				{
					"internalType": "uint256",
					"name": "_supply",
					"type": "uint256"
				}
			],
			"stateMutability": "nonpayable",
			"type": "constructor"
		},
		{
			"anonymous": false,
			"inputs": [
				{
					"indexed": false,
					"internalType": "address",
					"name": "to",
					"type": "address"
				}
			],
			"name": "AddOperator",
			"type": "event"
		},
		{
			"anonymous": false,
			"inputs": [
				{
					"indexed": true,
					"internalType": "address",
					"name": "owner",
					"type": "address"
				},
				{
					"indexed": true,
					"internalType": "address",
					"name": "approved",
					"type": "address"
				},
				{
					"indexed": true,
					"internalType": "uint256",
					"name": "tokenId",
					"type": "uint256"
				}
			],
			"name": "Approval",
			"type": "event"
		},
		{
			"anonymous": false,
			"inputs": [
				{
					"indexed": true,
					"internalType": "address",
					"name": "owner",
					"type": "address"
				},
				{
					"indexed": true,
					"internalType": "address",
					"name": "operator",
					"type": "address"
				},
				{
					"indexed": false,
					"internalType": "bool",
					"name": "approved",
					"type": "bool"
				}
			],
			"name": "ApprovalForAll",
			"type": "event"
		},
		{
			"anonymous": false,
			"inputs": [
				{
					"indexed": false,
					"internalType": "string",
					"name": "uri",
					"type": "string"
				}
			],
			"name": "BaseURIUpdated",
			"type": "event"
		},
		{
			"anonymous": false,
			"inputs": [
				{
					"indexed": false,
					"internalType": "uint256",
					"name": "time",
					"type": "uint256"
				}
			],
			"name": "OpenTimeUpdated",
			"type": "event"
		},
		{
			"anonymous": false,
			"inputs": [
				{
					"indexed": true,
					"internalType": "address",
					"name": "previousOwner",
					"type": "address"
				},
				{
					"indexed": true,
					"internalType": "address",
					"name": "newOwner",
					"type": "address"
				}
			],
			"name": "OwnershipTransferred",
			"type": "event"
		},
		{
			"anonymous": false,
			"inputs": [
				{
					"indexed": false,
					"internalType": "uint256",
					"name": "remains",
					"type": "uint256"
				}
			],
			"name": "RemainsUpdated",
			"type": "event"
		},
		{
			"anonymous": false,
			"inputs": [
				{
					"indexed": false,
					"internalType": "address",
					"name": "to",
					"type": "address"
				}
			],
			"name": "RemoveOperator",
			"type": "event"
		},
		{
			"anonymous": false,
			"inputs": [
				{
					"indexed": false,
					"internalType": "uint256",
					"name": "supply",
					"type": "uint256"
				}
			],
			"name": "SupplyUpdated",
			"type": "event"
		},
		{
			"anonymous": false,
			"inputs": [
				{
					"indexed": true,
					"internalType": "address",
					"name": "from",
					"type": "address"
				},
				{
					"indexed": true,
					"internalType": "address",
					"name": "to",
					"type": "address"
				},
				{
					"indexed": true,
					"internalType": "uint256",
					"name": "tokenId",
					"type": "uint256"
				}
			],
			"name": "Transfer",
			"type": "event"
		},
		{
			"anonymous": false,
			"inputs": [
				{
					"indexed": false,
					"internalType": "address",
					"name": "to",
					"type": "address"
				},
				{
					"indexed": false,
					"internalType": "bool",
					"name": "isWhite",
					"type": "bool"
				}
			],
			"name": "WhiteListUpdated",
			"type": "event"
		},
		{
			"inputs": [
				{
					"internalType": "address",
					"name": "to",
					"type": "address"
				}
			],
			"name": "addOperator",
			"outputs": [],
			"stateMutability": "nonpayable",
			"type": "function"
		},
		{
			"inputs": [
				{
					"internalType": "address",
					"name": "to",
					"type": "address"
				},
				{
					"internalType": "uint256",
					"name": "tokenId",
					"type": "uint256"
				}
			],
			"name": "approve",
			"outputs": [],
			"stateMutability": "nonpayable",
			"type": "function"
		},
		{
			"inputs": [
				{
					"internalType": "address",
					"name": "owner",
					"type": "address"
				}
			],
			"name": "balanceOf",
			"outputs": [
				{
					"internalType": "uint256",
					"name": "",
					"type": "uint256"
				}
			],
			"stateMutability": "view",
			"type": "function"
		},
		{
			"inputs": [],
			"name": "baseURI",
			"outputs": [
				{
					"internalType": "string",
					"name": "",
					"type": "string"
				}
			],
			"stateMutability": "view",
			"type": "function"
		},
		{
			"inputs": [
				{
					"internalType": "uint256",
					"name": "tokenId",
					"type": "uint256"
				}
			],
			"name": "burn",
			"outputs": [],
			"stateMutability": "nonpayable",
			"type": "function"
		},
		{
			"inputs": [
				{
					"internalType": "uint256",
					"name": "tokenId",
					"type": "uint256"
				}
			],
			"name": "getApproved",
			"outputs": [
				{
					"internalType": "address",
					"name": "",
					"type": "address"
				}
			],
			"stateMutability": "view",
			"type": "function"
		},
		{
			"inputs": [
				{
					"internalType": "address",
					"name": "owner",
					"type": "address"
				},
				{
					"internalType": "address",
					"name": "operator",
					"type": "address"
				}
			],
			"name": "isApprovedForAll",
			"outputs": [
				{
					"internalType": "bool",
					"name": "",
					"type": "bool"
				}
			],
			"stateMutability": "view",
			"type": "function"
		},
		{
			"inputs": [
				{
					"internalType": "address",
					"name": "",
					"type": "address"
				}
			],
			"name": "isClaimed",
			"outputs": [
				{
					"internalType": "bool",
					"name": "",
					"type": "bool"
				}
			],
			"stateMutability": "view",
			"type": "function"
		},
		{
			"inputs": [
				{
					"internalType": "address",
					"name": "to",
					"type": "address"
				}
			],
			"name": "isOperator",
			"outputs": [
				{
					"internalType": "bool",
					"name": "",
					"type": "bool"
				}
			],
			"stateMutability": "view",
			"type": "function"
		},
		{
			"inputs": [],
			"name": "mint",
			"outputs": [],
			"stateMutability": "nonpayable",
			"type": "function"
		},
		{
			"inputs": [],
			"name": "name",
			"outputs": [
				{
					"internalType": "string",
					"name": "",
					"type": "string"
				}
			],
			"stateMutability": "view",
			"type": "function"
		},
		{
			"inputs": [],
			"name": "openTime",
			"outputs": [
				{
					"internalType": "uint256",
					"name": "",
					"type": "uint256"
				}
			],
			"stateMutability": "view",
			"type": "function"
		},
		{
			"inputs": [
				{
					"internalType": "address",
					"name": "to",
					"type": "address"
				},
				{
					"internalType": "uint256",
					"name": "amount",
					"type": "uint256"
				}
			],
			"name": "operatorMint",
			"outputs": [],
			"stateMutability": "nonpayable",
			"type": "function"
		},
		{
			"inputs": [
				{
					"internalType": "address",
					"name": "",
					"type": "address"
				}
			],
			"name": "operators",
			"outputs": [
				{
					"internalType": "bool",
					"name": "",
					"type": "bool"
				}
			],
			"stateMutability": "view",
			"type": "function"
		},
		{
			"inputs": [],
			"name": "owner",
			"outputs": [
				{
					"internalType": "address",
					"name": "",
					"type": "address"
				}
			],
			"stateMutability": "view",
			"type": "function"
		},
		{
			"inputs": [
				{
					"internalType": "uint256",
					"name": "tokenId",
					"type": "uint256"
				}
			],
			"name": "ownerOf",
			"outputs": [
				{
					"internalType": "address",
					"name": "",
					"type": "address"
				}
			],
			"stateMutability": "view",
			"type": "function"
		},
		{
			"inputs": [],
			"name": "remains",
			"outputs": [
				{
					"internalType": "uint256",
					"name": "",
					"type": "uint256"
				}
			],
			"stateMutability": "view",
			"type": "function"
		},
		{
			"inputs": [
				{
					"internalType": "address",
					"name": "to",
					"type": "address"
				}
			],
			"name": "removeOperator",
			"outputs": [],
			"stateMutability": "nonpayable",
			"type": "function"
		},
		{
			"inputs": [],
			"name": "renounceOwnership",
			"outputs": [],
			"stateMutability": "nonpayable",
			"type": "function"
		},
		{
			"inputs": [
				{
					"internalType": "address",
					"name": "from",
					"type": "address"
				},
				{
					"internalType": "address",
					"name": "to",
					"type": "address"
				},
				{
					"internalType": "uint256",
					"name": "tokenId",
					"type": "uint256"
				}
			],
			"name": "safeTransferFrom",
			"outputs": [],
			"stateMutability": "nonpayable",
			"type": "function"
		},
		{
			"inputs": [
				{
					"internalType": "address",
					"name": "from",
					"type": "address"
				},
				{
					"internalType": "address",
					"name": "to",
					"type": "address"
				},
				{
					"internalType": "uint256",
					"name": "tokenId",
					"type": "uint256"
				},
				{
					"internalType": "bytes",
					"name": "_data",
					"type": "bytes"
				}
			],
			"name": "safeTransferFrom",
			"outputs": [],
			"stateMutability": "nonpayable",
			"type": "function"
		},
		{
			"inputs": [
				{
					"internalType": "address",
					"name": "operator",
					"type": "address"
				},
				{
					"internalType": "bool",
					"name": "approved",
					"type": "bool"
				}
			],
			"name": "setApprovalForAll",
			"outputs": [],
			"stateMutability": "nonpayable",
			"type": "function"
		},
		{
			"inputs": [
				{
					"internalType": "string",
					"name": "_baseURI",
					"type": "string"
				}
			],
			"name": "setBaseURI",
			"outputs": [],
			"stateMutability": "nonpayable",
			"type": "function"
		},
		{
			"inputs": [
				{
					"internalType": "uint256",
					"name": "time",
					"type": "uint256"
				}
			],
			"name": "setOpenTime",
			"outputs": [],
			"stateMutability": "nonpayable",
			"type": "function"
		},
		{
			"inputs": [
				{
					"internalType": "uint256",
					"name": "",
					"type": "uint256"
				}
			],
			"name": "slots",
			"outputs": [
				{
					"internalType": "uint256",
					"name": "",
					"type": "uint256"
				}
			],
			"stateMutability": "view",
			"type": "function"
		},
		{
			"inputs": [],
			"name": "supply",
			"outputs": [
				{
					"internalType": "uint256",
					"name": "",
					"type": "uint256"
				}
			],
			"stateMutability": "view",
			"type": "function"
		},
		{
			"inputs": [
				{
					"internalType": "bytes4",
					"name": "interfaceId",
					"type": "bytes4"
				}
			],
			"name": "supportsInterface",
			"outputs": [
				{
					"internalType": "bool",
					"name": "",
					"type": "bool"
				}
			],
			"stateMutability": "view",
			"type": "function"
		},
		{
			"inputs": [],
			"name": "symbol",
			"outputs": [
				{
					"internalType": "string",
					"name": "",
					"type": "string"
				}
			],
			"stateMutability": "view",
			"type": "function"
		},
		{
			"inputs": [
				{
					"internalType": "uint256",
					"name": "index",
					"type": "uint256"
				}
			],
			"name": "tokenByIndex",
			"outputs": [
				{
					"internalType": "uint256",
					"name": "",
					"type": "uint256"
				}
			],
			"stateMutability": "view",
			"type": "function"
		},
		{
			"inputs": [
				{
					"internalType": "address",
					"name": "owner",
					"type": "address"
				},
				{
					"internalType": "uint256",
					"name": "index",
					"type": "uint256"
				}
			],
			"name": "tokenOfOwnerByIndex",
			"outputs": [
				{
					"internalType": "uint256",
					"name": "",
					"type": "uint256"
				}
			],
			"stateMutability": "view",
			"type": "function"
		},
		{
			"inputs": [
				{
					"internalType": "uint256",
					"name": "tokenId",
					"type": "uint256"
				}
			],
			"name": "tokenURI",
			"outputs": [
				{
					"internalType": "string",
					"name": "",
					"type": "string"
				}
			],
			"stateMutability": "view",
			"type": "function"
		},
		{
			"inputs": [],
			"name": "totalSupply",
			"outputs": [
				{
					"internalType": "uint256",
					"name": "",
					"type": "uint256"
				}
			],
			"stateMutability": "view",
			"type": "function"
		},
		{
			"inputs": [
				{
					"internalType": "address",
					"name": "from",
					"type": "address"
				},
				{
					"internalType": "address",
					"name": "to",
					"type": "address"
				},
				{
					"internalType": "uint256",
					"name": "tokenId",
					"type": "uint256"
				}
			],
			"name": "transferFrom",
			"outputs": [],
			"stateMutability": "nonpayable",
			"type": "function"
		},
		{
			"inputs": [
				{
					"internalType": "address",
					"name": "newOwner",
					"type": "address"
				}
			],
			"name": "transferOwnership",
			"outputs": [],
			"stateMutability": "nonpayable",
			"type": "function"
		},
		{
			"inputs": [
				{
					"internalType": "address[]",
					"name": "_whiteList",
					"type": "address[]"
				},
				{
					"internalType": "bool",
					"name": "isWhite",
					"type": "bool"
				}
			],
			"name": "updateWhiteList",
			"outputs": [],
			"stateMutability": "nonpayable",
			"type": "function"
		},
		{
			"inputs": [
				{
					"internalType": "address",
					"name": "",
					"type": "address"
				}
			],
			"name": "whiteList",
			"outputs": [
				{
					"internalType": "bool",
					"name": "",
					"type": "bool"
				}
			],
			"stateMutability": "view",
			"type": "function"
		}
	],
	"bytecode": "0x60806040523480156200001157600080fd5b50604051620031523803806200315283398101604081905262000034916200051e565b60408051808201825260078152664d657461204e3160c81b60208083019182528351808501909452600684526536b2ba30902760d11b9084015281519192916200008191600091620002ed565b50805162000097906001906020840190620002ed565b505050620000b4620000ae6200010660201b60201c565b6200010a565b620000bf856200010a565b620000ca846200015c565b620000d58362000201565b620000e08262000248565b620000eb816200027f565b620000f681620002b6565b505043600c5550620006c8915050565b3390565b600a80546001600160a01b038381166001600160a01b0319831681179093556040519116919082907f8be0079c531659141344cd1fd0a4f28419497f9722a3daafe3b4186f6b6457e090600090a35050565b6001600160a01b0381166000908152600b602052604090205460ff1615620001a15760405162461bcd60e51b81526004016200019890620005be565b60405180910390fd5b6001600160a01b0381166000908152600b602052604090819020805460ff19166001179055517f4c141abccf173677929dea054f218ed87362117834a8869ec9f68d8bdaaea1dc90620001f69083906200060b565b60405180910390a150565b80516200021690600d906020840190620002ed565b507f6741b2fc379fad678116fe3d4d4b9a1a184ab53ba36b86ad0fa66340b1ab41ad81604051620001f6919062000650565b60108190556040517fedf52943c0aac396addd64b076c17e483c8cbd18671cae7e23cff0f84ea3b32390620001f690839062000671565b600e8190556040517fea4bfee7f9fb38136c61cc04b6e56efc93eaf1beef326dbc47495b358385914c90620001f690839062000671565b600f8190556040517f63c082b5cbc0f3aaf280371a6539ef71ced3276990fc07a8bce55d4fda3fe10b90620001f690839062000671565b828054620002fb9062000697565b90600052602060002090601f0160209004810192826200031f57600085556200036a565b82601f106200033a57805160ff19168380011785556200036a565b828001600101855582156200036a579182015b828111156200036a5782518255916020019190600101906200034d565b50620003789291506200037c565b5090565b5b808211156200037857600081556001016200037d565b60006001600160a01b0382165b92915050565b620003b18162000393565b8114620003bd57600080fd5b50565b8051620003a081620003a6565b634e487b7160e01b600052604160045260246000fd5b601f19601f83011681018181106001600160401b03821117156200040b576200040b620003cd565b6040525050565b60006200041e60405190565b90506200042c8282620003e3565b919050565b60006001600160401b038211156200044d576200044d620003cd565b601f19601f83011660200192915050565b60005b838110156200047b57818101518382015260200162000461565b838111156200048b576000848401525b50505050565b6000620004a8620004a28462000431565b62000412565b905082815260208101848484011115620004c557620004c5600080fd5b620004d28482856200045e565b509392505050565b600082601f830112620004f057620004f0600080fd5b81516200050284826020860162000491565b949350505050565b80620003b1565b8051620003a0816200050a565b600080600080600060a086880312156200053b576200053b600080fd5b6000620005498888620003c0565b95505060206200055c88828901620003c0565b94505060408601516001600160401b038111156200057d576200057d600080fd5b6200058b88828901620004da565b93505060606200059e8882890162000511565b9250506080620005b18882890162000511565b9150509295509295909350565b60208082528101620003a081601c81527f4f70657261746f72733a206578697374656e74206f70657261746f7200000000602082015260400190565b620006058162000393565b82525050565b60208101620003a08284620005fa565b600062000626825190565b8084526020840193506200063f8185602086016200045e565b601f01601f19169290920192915050565b602080825281016200066381846200061b565b9392505050565b8062000605565b60208101620003a082846200066a565b634e487b7160e01b600052602260045260246000fd5b600281046001821680620006ac57607f821691505b60208210811415620006c257620006c262000681565b50919050565b612a7a80620006d86000396000f3fe608060405234801561001057600080fd5b506004361061021c5760003560e01c80636d70f7ae11610125578063b4256888116100ad578063d9eed4641161007c578063d9eed46414610488578063e985e9c51461049b578063ef685ae6146104d7578063f2fde38b146104ea578063f60ba338146104fd57600080fd5b8063b425688814610450578063b88d4fde14610459578063c588ef6e1461046c578063c87b56dd1461047557600080fd5b80638da5cb5b116100f45780638da5cb5b146103fe57806395d89b411461040f5780639870d7fe14610417578063a22cb4651461042a578063ac8a584a1461043d57600080fd5b80636d70f7ae146103ad57806370a08231146103c0578063715018a6146103d35780638cc08025146103db57600080fd5b80632f745c59116101a857806342966c681161017757806342966c68146103595780634f6ccce71461036c57806355f804b31461037f5780636352211e146103925780636c0360eb146103a557600080fd5b80632f745c59146102f0578063372c12b114610303578063387dd9e91461032657806342842e0e1461034657600080fd5b8063095ea7b3116101ef578063095ea7b3146102955780631249c58b146102aa57806313e7c9d8146102b257806318160ddd146102d557806323b872dd146102dd57600080fd5b806301ffc9a714610221578063047fc9aa1461024a57806306fdde0314610260578063081812fc14610275575b600080fd5b61023461022f366004611a49565b610510565b6040516102419190611a74565b60405180910390f35b610253600e5481565b6040516102419190611a88565b61026861053b565b6040516102419190611af4565b610288610283366004611b16565b6105cd565b6040516102419190611b51565b6102a86102a3366004611b73565b610626565b005b6102a86106ac565b6102346102c0366004611bb0565b600b6020526000908152604090205460ff1681565b600854610253565b6102a86102eb366004611bd1565b610763565b6102536102fe366004611b73565b610795565b610234610311366004611bb0565b60126020526000908152604090205460ff1681565b610253610334366004611b16565b60116020526000908152604090205481565b6102a8610354366004611bd1565b6107e7565b6102a8610367366004611b16565b610802565b61025361037a366004611b16565b610833565b6102a861038d366004611d1c565b610881565b6102886103a0366004611b16565b6108af565b6102686108e4565b6102346103bb366004611bb0565b610972565b6102536103ce366004611bb0565b610990565b6102a86109d4565b6102346103e9366004611bb0565b60136020526000908152604090205460ff1681565b600a546001600160a01b0316610288565b610268610a0a565b6102a8610425366004611bb0565b610a19565b6102a8610438366004611d6a565b610a4c565b6102a861044b366004611bb0565b610a5b565b61025360105481565b6102a8610467366004611d9d565b610a8e565b610253600f5481565b610268610483366004611b16565b610ac6565b6102a8610496366004611ebf565b610b2f565b6102346104a9366004611efb565b6001600160a01b03918216600090815260056020908152604080832093909416825291909152205460ff1690565b6102a86104e5366004611b73565b610b5e565b6102a86104f8366004611bb0565b610ba9565b6102a861050b366004611b16565b610c02565b60006001600160e01b0319821663780e9d6360e01b1480610535575061053582610c30565b92915050565b60606000805461054a90611f44565b80601f016020809104026020016040519081016040528092919081815260200182805461057690611f44565b80156105c35780601f10610598576101008083540402835291602001916105c3565b820191906000526020600020905b8154815290600101906020018083116105a657829003601f168201915b5050505050905090565b6000818152600260205260408120546001600160a01b031661060a5760405162461bcd60e51b815260040161060190611fbd565b60405180910390fd5b506000908152600460205260409020546001600160a01b031690565b6000610631826108af565b9050806001600160a01b0316836001600160a01b031614156106655760405162461bcd60e51b81526004016106019061200b565b336001600160a01b0382161480610681575061068181336104a9565b61069d5760405162461bcd60e51b815260040161060190612075565b6106a78383610c80565b505050565b4260105410156106ce5760405162461bcd60e51b8152600401610601906120bc565b3360008181526012602052604090205460ff166106fd5760405162461bcd60e51b815260040161060190612111565b6001600160a01b03811660009081526013602052604090205460ff16156107365760405162461bcd60e51b815260040161060190612155565b61073f81610cee565b6001600160a01b03166000908152601360205260409020805460ff19166001179055565b61076e335b82610dcd565b61078a5760405162461bcd60e51b8152600401610601906121b3565b6106a7838383610e7f565b60006107a083610990565b82106107be5760405162461bcd60e51b81526004016106019061220b565b506001600160a01b03919091166000908152600660209081526040808320938352929052205490565b6106a783838360405180602001604052806000815250610a8e565b61080b33610768565b6108275760405162461bcd60e51b815260040161060190612261565b61083081610fac565b50565b600061083e60085490565b821061085c5760405162461bcd60e51b8152600401610601906122ba565b6008828154811061086f5761086f6122ca565b90600052602060002001549050919050565b61088a33610972565b6108a65760405162461bcd60e51b815260040161060190612322565b61083081611053565b6000818152600260205260408120546001600160a01b0316806105355760405162461bcd60e51b815260040161060190612378565b600d80546108f190611f44565b80601f016020809104026020016040519081016040528092919081815260200182805461091d90611f44565b801561096a5780601f1061093f5761010080835404028352916020019161096a565b820191906000526020600020905b81548152906001019060200180831161094d57829003601f168201915b505050505081565b6001600160a01b03166000908152600b602052604090205460ff1690565b60006001600160a01b0382166109b85760405162461bcd60e51b8152600401610601906123cf565b506001600160a01b031660009081526003602052604090205490565b600a546001600160a01b031633146109fe5760405162461bcd60e51b815260040161060190612411565b610a0860006110a1565b565b60606001805461054a90611f44565b600a546001600160a01b03163314610a435760405162461bcd60e51b815260040161060190612411565b610830816110f3565b610a5733838361116c565b5050565b600a546001600160a01b03163314610a855760405162461bcd60e51b815260040161060190612411565b6108308161120f565b610a983383610dcd565b610ab45760405162461bcd60e51b8152600401610601906121b3565b610ac084848484611284565b50505050565b6000818152600260205260409020546060906001600160a01b0316610afd5760405162461bcd60e51b815260040161060190612466565b600d610b08836112b7565b604051602001610b19929190612506565b6040516020818303038152906040529050919050565b610b3833610972565b610b545760405162461bcd60e51b815260040161060190612322565b610a5782826113b5565b610b6733610972565b610b835760405162461bcd60e51b815260040161060190612322565b60005b818110156106a757610b9783610cee565b80610ba181612534565b915050610b86565b600a546001600160a01b03163314610bd35760405162461bcd60e51b815260040161060190612411565b6001600160a01b038116610bf95760405162461bcd60e51b815260040161060190612592565b610830816110a1565b610c0b33610972565b610c275760405162461bcd60e51b815260040161060190612322565b61083081611417565b60006001600160e01b031982166380ac58cd60e01b1480610c6157506001600160e01b03198216635b5e139f60e01b145b8061053557506301ffc9a760e01b6001600160e01b0319831614610535565b600081815260046020526040902080546001600160a01b0319166001600160a01b0384169081179091558190610cb5826108af565b6001600160a01b03167f8c5be1e5ebec7d5bd14f71427d1e84f3dd0314c0f7b2291e5b200ac8c7c3b92560405160405180910390a45050565b6000600f5411610d105760405162461bcd60e51b8152600401610601906125d6565b600c8054906000610d2083612534565b91905055506000610d2f61144c565b600081815260116020526040902054909150610d5457610d4f82826114a1565b610d6e565b600081815260116020526040902054610d6e9083906114a1565b600f5460009081526011602052604090205415610da357600f5460009081526011602052604080822054838352912055610db6565b600f546000828152601160205260409020555b600f54610a5790610dc890600161158f565b6115a2565b6000818152600260205260408120546001600160a01b0316610e015760405162461bcd60e51b81526004016106019061262f565b6000610e0c836108af565b9050806001600160a01b0316846001600160a01b03161480610e5357506001600160a01b0380821660009081526005602090815260408083209388168352929052205460ff165b80610e775750836001600160a01b0316610e6c846105cd565b6001600160a01b0316145b949350505050565b826001600160a01b0316610e92826108af565b6001600160a01b031614610eb85760405162461bcd60e51b815260040161060190612681565b6001600160a01b038216610ede5760405162461bcd60e51b8152600401610601906126d2565b610ee98383836115d7565b610ef4600082610c80565b6001600160a01b0383166000908152600360205260408120805460019290610f1d9084906126e2565b90915550506001600160a01b0382166000908152600360205260408120805460019290610f4b9084906126f9565b909155505060008181526002602052604080822080546001600160a01b0319166001600160a01b0386811691821790925591518493918716917fddf252ad1be2c89b69c2b068fc378daa952ba7f163c4a11628f55a4df523b3ef91a4505050565b6000610fb7826108af565b9050610fc5816000846115d7565b610fd0600083610c80565b6001600160a01b0381166000908152600360205260408120805460019290610ff99084906126e2565b909155505060008281526002602052604080822080546001600160a01b0319169055518391906001600160a01b038416907fddf252ad1be2c89b69c2b068fc378daa952ba7f163c4a11628f55a4df523b3ef908390a45050565b805161106690600d90602084019061198e565b507f6741b2fc379fad678116fe3d4d4b9a1a184ab53ba36b86ad0fa66340b1ab41ad816040516110969190611af4565b60405180910390a150565b600a80546001600160a01b038381166001600160a01b0319831681179093556040519116919082907f8be0079c531659141344cd1fd0a4f28419497f9722a3daafe3b4186f6b6457e090600090a35050565b6110fc81610972565b156111195760405162461bcd60e51b815260040161060190612745565b6001600160a01b0381166000908152600b602052604090819020805460ff19166001179055517f4c141abccf173677929dea054f218ed87362117834a8869ec9f68d8bdaaea1dc90611096908390611b51565b816001600160a01b0316836001600160a01b0316141561119e5760405162461bcd60e51b815260040161060190612789565b6001600160a01b0383811660008181526005602090815260408083209487168084529490915290819020805460ff1916851515179055517f17307eab39ab6107e8899845ad3d59bd9653f200f220920489ca2b5937696c3190611202908590611a74565b60405180910390a3505050565b61121881610972565b6112345760405162461bcd60e51b8152600401610601906127cd565b6001600160a01b0381166000908152600b602052604090819020805460ff19169055517f6b4be2dd49eba45ba43390fbe7da13e2b965d255db41d6a0fcf6d2e15ac1fccb90611096908390611b51565b61128f848484610e7f565b61129b8484848461168f565b610ac05760405162461bcd60e51b81526004016106019061282c565b6060816112db5750506040805180820190915260018152600360fc1b602082015290565b8160005b811561130557806112ef81612534565b91506112fe9050600a83612852565b91506112df565b60008167ffffffffffffffff81111561132057611320611c21565b6040519080825280601f01601f19166020018201604052801561134a576020820181803683370190505b5090505b8415610e775761135f6001836126e2565b915061136c600a86612866565b6113779060306126f9565b60f81b81838151811061138c5761138c6122ca565b60200101906001600160f81b031916908160001a9053506113ae600a86612852565b945061134e565b60008251116113d65760405162461bcd60e51b8152600401610601906128ae565b60005b82518110156106a7576114058382815181106113f7576113f76122ca565b60200260200101518361179c565b8061140f81612534565b9150506113d9565b60108190556040517fedf52943c0aac396addd64b076c17e483c8cbd18671cae7e23cff0f84ea3b32390611096908390611a88565b600080600c54434033604051602001611467939291906128e6565b6040516020818303038152906040528051906020012060001c9050600f54816114909190612866565b61149b9060016126f9565b91505090565b6001600160a01b0382166114c75760405162461bcd60e51b81526004016106019061294f565b6000818152600260205260409020546001600160a01b0316156114fc5760405162461bcd60e51b815260040161060190612993565b611508600083836115d7565b6001600160a01b03821660009081526003602052604081208054600192906115319084906126f9565b909155505060008181526002602052604080822080546001600160a01b0319166001600160a01b03861690811790915590518392907fddf252ad1be2c89b69c2b068fc378daa952ba7f163c4a11628f55a4df523b3ef908290a45050565b600061159b82846126e2565b9392505050565b600f8190556040517f63c082b5cbc0f3aaf280371a6539ef71ced3276990fc07a8bce55d4fda3fe10b90611096908390611a88565b6001600160a01b0383166116325761162d81600880546000838152600960205260408120829055600182018355919091527ff3f7a9fe364faab93b216da50a3214154f22a0a2b415b23a84c8169e8b636ee30155565b611655565b816001600160a01b0316836001600160a01b0316146116555761165583826117fe565b6001600160a01b03821661166c576106a78161189b565b826001600160a01b0316826001600160a01b0316146106a7576106a7828261194a565b60006001600160a01b0384163b1561179157604051630a85bd0160e11b81526001600160a01b0385169063150b7a02906116d39033908990889088906004016129a3565b602060405180830381600087803b1580156116ed57600080fd5b505af192505050801561171d575060408051601f3d908101601f1916820190925261171a918101906129f2565b60015b611777573d80801561174b576040519150601f19603f3d011682016040523d82523d6000602084013e611750565b606091505b50805161176f5760405162461bcd60e51b81526004016106019061282c565b805181602001fd5b6001600160e01b031916630a85bd0160e11b149050610e77565b506001949350505050565b6001600160a01b03821660009081526012602052604090819020805460ff1916831515179055517fb1288e9f7bae3599e10819d5553febea48e11a6f8f585b32c8abad397dd2627e906117f29084908490612a13565b60405180910390a15050565b6000600161180b84610990565b61181591906126e2565b600083815260076020526040902054909150808214611868576001600160a01b03841660009081526006602090815260408083208584528252808320548484528184208190558352600790915290208190555b5060009182526007602090815260408084208490556001600160a01b039094168352600681528383209183525290812055565b6008546000906118ad906001906126e2565b600083815260096020526040812054600880549394509092849081106118d5576118d56122ca565b9060005260206000200154905080600883815481106118f6576118f66122ca565b600091825260208083209091019290925582815260099091526040808220849055858252812055600880548061192e5761192e612a2e565b6001900381819060005260206000200160009055905550505050565b600061195583610990565b6001600160a01b039093166000908152600660209081526040808320868452825280832085905593825260079052919091209190915550565b82805461199a90611f44565b90600052602060002090601f0160209004810192826119bc5760008555611a02565b82601f106119d557805160ff1916838001178555611a02565b82800160010185558215611a02579182015b82811115611a025782518255916020019190600101906119e7565b50611a0e929150611a12565b5090565b5b80821115611a0e5760008155600101611a13565b6001600160e01b031981165b811461083057600080fd5b803561053581611a27565b600060208284031215611a5e57611a5e600080fd5b6000610e778484611a3e565b8015155b82525050565b602081016105358284611a6a565b80611a6e565b602081016105358284611a82565b60005b83811015611ab1578181015183820152602001611a99565b83811115610ac05750506000910152565b6000611acc825190565b808452602084019350611ae3818560208601611a96565b601f01601f19169290920192915050565b6020808252810161159b8184611ac2565b80611a33565b803561053581611b05565b600060208284031215611b2b57611b2b600080fd5b6000610e778484611b0b565b60006001600160a01b038216610535565b611a6e81611b37565b602081016105358284611b48565b611a3381611b37565b803561053581611b5f565b60008060408385031215611b8957611b89600080fd5b6000611b958585611b68565b9250506020611ba685828601611b0b565b9150509250929050565b600060208284031215611bc557611bc5600080fd5b6000610e778484611b68565b600080600060608486031215611be957611be9600080fd5b6000611bf58686611b68565b9350506020611c0686828701611b68565b9250506040611c1786828701611b0b565b9150509250925092565b634e487b7160e01b600052604160045260246000fd5b601f19601f830116810181811067ffffffffffffffff82111715611c5d57611c5d611c21565b6040525050565b6000611c6f60405190565b9050611c7b8282611c37565b919050565b600067ffffffffffffffff821115611c9a57611c9a611c21565b601f19601f83011660200192915050565b82818337506000910152565b6000611cca611cc584611c80565b611c64565b905082815260208101848484011115611ce557611ce5600080fd5b611cf0848285611cab565b509392505050565b600082601f830112611d0c57611d0c600080fd5b8135610e77848260208601611cb7565b600060208284031215611d3157611d31600080fd5b813567ffffffffffffffff811115611d4b57611d4b600080fd5b610e7784828501611cf8565b801515611a33565b803561053581611d57565b60008060408385031215611d8057611d80600080fd5b6000611d8c8585611b68565b9250506020611ba685828601611d5f565b60008060008060808587031215611db657611db6600080fd5b6000611dc28787611b68565b9450506020611dd387828801611b68565b9350506040611de487828801611b0b565b925050606085013567ffffffffffffffff811115611e0457611e04600080fd5b611e1087828801611cf8565b91505092959194509250565b600067ffffffffffffffff821115611e3657611e36611c21565b5060209081020190565b6000611e4e611cc584611e1c565b83815290506020808201908402830185811115611e6d57611e6d600080fd5b835b81811015611e915780611e828882611b68565b84525060209283019201611e6f565b5050509392505050565b600082601f830112611eaf57611eaf600080fd5b8135610e77848260208601611e40565b60008060408385031215611ed557611ed5600080fd5b823567ffffffffffffffff811115611eef57611eef600080fd5b611d8c85828601611e9b565b60008060408385031215611f1157611f11600080fd5b6000611f1d8585611b68565b9250506020611ba685828601611b68565b634e487b7160e01b600052602260045260246000fd5b600281046001821680611f5857607f821691505b60208210811415611f6b57611f6b611f2e565b50919050565b602c81526000602082017f4552433732313a20617070726f76656420717565727920666f72206e6f6e657881526b34b9ba32b73a103a37b5b2b760a11b602082015291505b5060400190565b6020808252810161053581611f71565b602181526000602082017f4552433732313a20617070726f76616c20746f2063757272656e74206f776e658152603960f91b60208201529150611fb6565b6020808252810161053581611fcd565b603881526000602082017f4552433732313a20617070726f76652063616c6c6572206973206e6f74206f7781527f6e6572206e6f7220617070726f76656420666f7220616c6c000000000000000060208201529150611fb6565b602080825281016105358161201b565b601981526000602082017f4d657461204e313a2073616c65206973206e6f74206f70656e00000000000000815291505b5060200190565b6020808252810161053581612085565b602881526000602082017f4d657461204e313a2063616c6c6572206973206e6f7420696e207468652077688152671a5d19481b1a5cdd60c21b60208201529150611fb6565b60208082528101610535816120cc565b601f81526000602082017f4d657461204e313a20746f6b656e20686173206265656e20636c61696d656400815291506120b5565b6020808252810161053581612121565b603181526000602082017f4552433732313a207472616e736665722063616c6c6572206973206e6f74206f8152701ddb995c881b9bdc88185c1c1c9bdd9959607a1b60208201529150611fb6565b6020808252810161053581612165565b602b81526000602082017f455243373231456e756d657261626c653a206f776e657220696e646578206f7581526a74206f6620626f756e647360a81b60208201529150611fb6565b60208082528101610535816121c3565b602981526000602082017f4d657461204e313a2063616c6c6572206973206e6f74206f776e6572206e6f7281526808185c1c1c9bdd995960ba1b60208201529150611fb6565b602080825281016105358161221b565b602c81526000602082017f455243373231456e756d657261626c653a20676c6f62616c20696e646578206f81526b7574206f6620626f756e647360a01b60208201529150611fb6565b6020808252810161053581612271565b634e487b7160e01b600052603260045260246000fd5b602581526000602082017f4f70657261746f72733a2063616c6c6572206973206e6f7420746865206f70658152643930ba37b960d91b60208201529150611fb6565b60208082528101610535816122e0565b602981526000602082017f4552433732313a206f776e657220717565727920666f72206e6f6e657869737481526832b73a103a37b5b2b760b91b60208201529150611fb6565b6020808252810161053581612332565b602a81526000602082017f4552433732313a2062616c616e636520717565727920666f7220746865207a65815269726f206164647265737360b01b60208201529150611fb6565b6020808252810161053581612388565b60208082527f4f776e61626c653a2063616c6c6572206973206e6f7420746865206f776e6572910190815260006120b5565b60208082528101610535816123df565b602881526000602082017f4d657461204e313a2055524920717565727920666f72206e6f6e657869737465815267373a103a37b5b2b760c11b60208201529150611fb6565b6020808252810161053581612421565b6000815461248381611f44565b60018216801561249a57600181146124ab576124db565b60ff198316865281860193506124db565b60008581526020902060005b838110156124d3578154888201526001909101906020016124b7565b838801955050505b50505092915050565b60006124ee825190565b6124fc818560208601611a96565b9290920192915050565b60006125128285612476565b9150610e7782846124e4565b634e487b7160e01b600052601160045260246000fd5b60006000198214156125485761254861251e565b5060010190565b602681526000602082017f4f776e61626c653a206e6577206f776e657220697320746865207a65726f206181526564647265737360d01b60208201529150611fb6565b602080825281016105358161254f565b601781526000602082017f4d657461204e313a20746f6b656e20736f6c64206f7574000000000000000000815291506120b5565b60208082528101610535816125a2565b602c81526000602082017f4552433732313a206f70657261746f7220717565727920666f72206e6f6e657881526b34b9ba32b73a103a37b5b2b760a11b60208201529150611fb6565b60208082528101610535816125e6565b602581526000602082017f4552433732313a207472616e736665722066726f6d20696e636f72726563742081526437bbb732b960d91b60208201529150611fb6565b602080825281016105358161263f565b602481526000602082017f4552433732313a207472616e7366657220746f20746865207a65726f206164648152637265737360e01b60208201529150611fb6565b6020808252810161053581612691565b6000828210156126f4576126f461251e565b500390565b6000821982111561270c5761270c61251e565b500190565b601c81526000602082017f4f70657261746f72733a206578697374656e74206f70657261746f7200000000815291506120b5565b6020808252810161053581612711565b601981526000602082017f4552433732313a20617070726f766520746f2063616c6c657200000000000000815291506120b5565b6020808252810161053581612755565b601f81526000602082017f4f70657261746f72733a206e6f6e6578697374656e74206f70657261746f7200815291506120b5565b6020808252810161053581612799565b603281526000602082017f4552433732313a207472616e7366657220746f206e6f6e20455243373231526581527131b2b4bb32b91034b6b83632b6b2b73a32b960711b60208201529150611fb6565b60208082528101610535816127dd565b634e487b7160e01b600052601260045260246000fd5b6000826128615761286161283c565b500490565b6000826128755761287561283c565b500690565b601c81526000602082017f4d657461204e313a20696e76616c6964206c697374206c656e67746800000000815291506120b5565b602080825281016105358161287a565b60006105358260601b90565b6000610535826128be565b611a6e6128e182611b37565b6128ca565b60006128f28286611a82565b6020820191506129028285611a82565b60208201915061291282846128d5565b506014019392505050565b60208082527f4552433732313a206d696e7420746f20746865207a65726f2061646472657373910190815260006120b5565b602080825281016105358161291d565b601c81526000602082017f4552433732313a20746f6b656e20616c7265616479206d696e74656400000000815291506120b5565b602080825281016105358161295f565b608081016129b18287611b48565b6129be6020830186611b48565b6129cb6040830185611a82565b81810360608301526129dd8184611ac2565b9695505050505050565b805161053581611a27565b600060208284031215612a0757612a07600080fd5b6000610e7784846129e7565b60408101612a218285611b48565b61159b6020830184611a6a565b634e487b7160e01b600052603160045260246000fdfea2646970667358221220fe544d0bc48f8c4847119fb9e2a7fba1e22b1bca4da7e396bb38a7816080d56764736f6c63430008090033",
	"linkReferences": {},
	"deployedLinkReferences": {}
}